{
  "_format": "hh-sol-artifact-1",
  "contractName": "RandomPuppy",
  "sourceName": "contracts/RandomPuppy.sol",
  "abi": [
    {
      "inputs": [
        {
          "internalType": "address",
          "name": "vrfCoordinatorV2",
          "type": "address"
        },
        {
          "internalType": "bytes32",
          "name": "keyHash",
          "type": "bytes32"
        },
        {
          "internalType": "uint64",
          "name": "subscriptionId",
          "type": "uint64"
        },
        {
          "internalType": "uint32",
          "name": "callbackGasLimit",
          "type": "uint32"
        },
        {
          "internalType": "string[3]",
          "name": "puppyTokenUris",
          "type": "string[3]"
        }
      ],
      "stateMutability": "nonpayable",
      "type": "constructor"
    },
    {
      "inputs": [
        {
          "internalType": "address",
          "name": "have",
          "type": "address"
        },
        {
          "internalType": "address",
          "name": "want",
          "type": "address"
        }
      ],
      "name": "OnlyCoordinatorCanFulfill",
      "type": "error"
    },
    {
      "anonymous": false,
      "inputs": [
        {
          "indexed": true,
          "internalType": "address",
          "name": "owner",
          "type": "address"
        },
        {
          "indexed": true,
          "internalType": "address",
          "name": "approved",
          "type": "address"
        },
        {
          "indexed": true,
          "internalType": "uint256",
          "name": "tokenId",
          "type": "uint256"
        }
      ],
      "name": "Approval",
      "type": "event"
    },
    {
      "anonymous": false,
      "inputs": [
        {
          "indexed": true,
          "internalType": "address",
          "name": "owner",
          "type": "address"
        },
        {
          "indexed": true,
          "internalType": "address",
          "name": "operator",
          "type": "address"
        },
        {
          "indexed": false,
          "internalType": "bool",
          "name": "approved",
          "type": "bool"
        }
      ],
      "name": "ApprovalForAll",
      "type": "event"
    },
    {
      "anonymous": false,
      "inputs": [
        {
          "indexed": false,
          "internalType": "address",
          "name": "sender",
          "type": "address"
        },
        {
          "indexed": false,
          "internalType": "uint256",
          "name": "tokenId",
          "type": "uint256"
        }
      ],
      "name": "PuppyMinted",
      "type": "event"
    },
    {
      "anonymous": false,
      "inputs": [
        {
          "indexed": true,
          "internalType": "address",
          "name": "from",
          "type": "address"
        },
        {
          "indexed": true,
          "internalType": "address",
          "name": "to",
          "type": "address"
        },
        {
          "indexed": true,
          "internalType": "uint256",
          "name": "tokenId",
          "type": "uint256"
        }
      ],
      "name": "Transfer",
      "type": "event"
    },
    {
      "inputs": [
        {
          "internalType": "address",
          "name": "to",
          "type": "address"
        },
        {
          "internalType": "uint256",
          "name": "tokenId",
          "type": "uint256"
        }
      ],
      "name": "approve",
      "outputs": [],
      "stateMutability": "nonpayable",
      "type": "function"
    },
    {
      "inputs": [
        {
          "internalType": "address",
          "name": "owner",
          "type": "address"
        }
      ],
      "name": "balanceOf",
      "outputs": [
        {
          "internalType": "uint256",
          "name": "",
          "type": "uint256"
        }
      ],
      "stateMutability": "view",
      "type": "function"
    },
    {
      "inputs": [
        {
          "internalType": "uint256",
          "name": "tokenId",
          "type": "uint256"
        }
      ],
      "name": "getApproved",
      "outputs": [
        {
          "internalType": "address",
          "name": "",
          "type": "address"
        }
      ],
      "stateMutability": "view",
      "type": "function"
    },
    {
      "inputs": [
        {
          "internalType": "uint256",
          "name": "moddedRng",
          "type": "uint256"
        }
      ],
      "name": "getBreedFromModdedRng",
      "outputs": [
        {
          "internalType": "uint256",
          "name": "i",
          "type": "uint256"
        }
      ],
      "stateMutability": "pure",
      "type": "function"
    },
    {
      "inputs": [],
      "name": "getChanceArray",
      "outputs": [
        {
          "internalType": "uint256[3]",
          "name": "",
          "type": "uint256[3]"
        }
      ],
      "stateMutability": "pure",
      "type": "function"
    },
    {
      "inputs": [],
      "name": "getTotalPuppiesMinted",
      "outputs": [
        {
          "internalType": "uint256",
          "name": "",
          "type": "uint256"
        }
      ],
      "stateMutability": "view",
      "type": "function"
    },
    {
      "inputs": [
        {
          "internalType": "address",
          "name": "owner",
          "type": "address"
        },
        {
          "internalType": "address",
          "name": "operator",
          "type": "address"
        }
      ],
      "name": "isApprovedForAll",
      "outputs": [
        {
          "internalType": "bool",
          "name": "",
          "type": "bool"
        }
      ],
      "stateMutability": "view",
      "type": "function"
    },
    {
      "inputs": [],
      "name": "name",
      "outputs": [
        {
          "internalType": "string",
          "name": "",
          "type": "string"
        }
      ],
      "stateMutability": "view",
      "type": "function"
    },
    {
      "inputs": [
        {
          "internalType": "uint256",
          "name": "tokenId",
          "type": "uint256"
        }
      ],
      "name": "ownerOf",
      "outputs": [
        {
          "internalType": "address",
          "name": "",
          "type": "address"
        }
      ],
      "stateMutability": "view",
      "type": "function"
    },
    {
      "inputs": [
        {
          "internalType": "uint256",
          "name": "requestId",
          "type": "uint256"
        },
        {
          "internalType": "uint256[]",
          "name": "randomWords",
          "type": "uint256[]"
        }
      ],
      "name": "rawFulfillRandomWords",
      "outputs": [],
      "stateMutability": "nonpayable",
      "type": "function"
    },
    {
      "inputs": [],
      "name": "requestPuppy",
      "outputs": [
        {
          "internalType": "uint256",
          "name": "requestId",
          "type": "uint256"
        }
      ],
      "stateMutability": "nonpayable",
      "type": "function"
    },
    {
      "inputs": [
        {
          "internalType": "address",
          "name": "from",
          "type": "address"
        },
        {
          "internalType": "address",
          "name": "to",
          "type": "address"
        },
        {
          "internalType": "uint256",
          "name": "tokenId",
          "type": "uint256"
        }
      ],
      "name": "safeTransferFrom",
      "outputs": [],
      "stateMutability": "nonpayable",
      "type": "function"
    },
    {
      "inputs": [
        {
          "internalType": "address",
          "name": "from",
          "type": "address"
        },
        {
          "internalType": "address",
          "name": "to",
          "type": "address"
        },
        {
          "internalType": "uint256",
          "name": "tokenId",
          "type": "uint256"
        },
        {
          "internalType": "bytes",
          "name": "_data",
          "type": "bytes"
        }
      ],
      "name": "safeTransferFrom",
      "outputs": [],
      "stateMutability": "nonpayable",
      "type": "function"
    },
    {
      "inputs": [
        {
          "internalType": "address",
          "name": "operator",
          "type": "address"
        },
        {
          "internalType": "bool",
          "name": "approved",
          "type": "bool"
        }
      ],
      "name": "setApprovalForAll",
      "outputs": [],
      "stateMutability": "nonpayable",
      "type": "function"
    },
    {
      "inputs": [
        {
          "internalType": "bytes4",
          "name": "interfaceId",
          "type": "bytes4"
        }
      ],
      "name": "supportsInterface",
      "outputs": [
        {
          "internalType": "bool",
          "name": "",
          "type": "bool"
        }
      ],
      "stateMutability": "view",
      "type": "function"
    },
    {
      "inputs": [],
      "name": "symbol",
      "outputs": [
        {
          "internalType": "string",
          "name": "",
          "type": "string"
        }
      ],
      "stateMutability": "view",
      "type": "function"
    },
    {
      "inputs": [
        {
          "internalType": "uint256",
          "name": "tokenId",
          "type": "uint256"
        }
      ],
      "name": "tokenURI",
      "outputs": [
        {
          "internalType": "string",
          "name": "",
          "type": "string"
        }
      ],
      "stateMutability": "view",
      "type": "function"
    },
    {
      "inputs": [
        {
          "internalType": "address",
          "name": "from",
          "type": "address"
        },
        {
          "internalType": "address",
          "name": "to",
          "type": "address"
        },
        {
          "internalType": "uint256",
          "name": "tokenId",
          "type": "uint256"
        }
      ],
      "name": "transferFrom",
      "outputs": [],
      "stateMutability": "nonpayable",
      "type": "function"
    }
  ],
  "bytecode": "0x6101206040523480156200001257600080fd5b5060405162003be238038062003be28339818101604052810190620000389190620004bb565b846040518060400160405280600c81526020017f52616e646f6d20507570707900000000000000000000000000000000000000008152506040518060400160405280600581526020017f50555050590000000000000000000000000000000000000000000000000000008152508160009080519060200190620000bd929190620001a6565b508060019080519060200190620000d6929190620001a6565b5050508073ffffffffffffffffffffffffffffffffffffffff1660808173ffffffffffffffffffffffffffffffffffffffff1660601b81525050508473ffffffffffffffffffffffffffffffffffffffff1660a08173ffffffffffffffffffffffffffffffffffffffff1660601b815250508360c081815250508267ffffffffffffffff1660e08167ffffffffffffffff1660c01b815250508163ffffffff166101008163ffffffff1660e01b815250508060099060036200019a92919062000237565b505050505050620007de565b828054620001b49062000682565b90600052602060002090601f016020900481019282620001d8576000855562000224565b82601f10620001f357805160ff191683800117855562000224565b8280016001018555821562000224579182015b828111156200022357825182559160200191906001019062000206565b5b50905062000233919062000291565b5090565b82600381019282156200027e579160200282015b828111156200027d5782518290805190602001906200026c929190620001a6565b50916020019190600101906200024b565b5b5090506200028d9190620002b0565b5090565b5b80821115620002ac57600081600090555060010162000292565b5090565b5b80821115620002d45760008181620002ca9190620002d8565b50600101620002b1565b5090565b508054620002e69062000682565b6000825580601f10620002fa57506200031b565b601f0160209004906000526020600020908101906200031a919062000291565b5b50565b6000620003356200032f846200058b565b62000562565b9050808285602086028201111562000352576200035162000751565b5b60005b85811015620003a757815167ffffffffffffffff8111156200037c576200037b6200074c565b5b8086016200038b89826200045a565b8552602085019450602084019350505060018101905062000355565b5050509392505050565b6000620003c8620003c284620005b4565b62000562565b905082815260208101848484011115620003e757620003e662000756565b5b620003f48482856200064c565b509392505050565b6000815190506200040d8162000776565b92915050565b600082601f8301126200042b576200042a6200074c565b5b60036200043a8482856200031e565b91505092915050565b600081519050620004548162000790565b92915050565b600082601f8301126200047257620004716200074c565b5b815162000484848260208601620003b1565b91505092915050565b6000815190506200049e81620007aa565b92915050565b600081519050620004b581620007c4565b92915050565b600080600080600060a08688031215620004da57620004d962000760565b5b6000620004ea88828901620003fc565b9550506020620004fd8882890162000443565b94505060406200051088828901620004a4565b935050606062000523888289016200048d565b925050608086015167ffffffffffffffff8111156200054757620005466200075b565b5b620005558882890162000413565b9150509295509295909350565b60006200056e62000581565b90506200057c8282620006b8565b919050565b6000604051905090565b600067ffffffffffffffff821115620005a957620005a86200071d565b5b602082029050919050565b600067ffffffffffffffff821115620005d257620005d16200071d565b5b620005dd8262000765565b9050602081019050919050565b6000620005f78262000608565b9050919050565b6000819050919050565b600073ffffffffffffffffffffffffffffffffffffffff82169050919050565b600063ffffffff82169050919050565b600067ffffffffffffffff82169050919050565b60005b838110156200066c5780820151818401526020810190506200064f565b838111156200067c576000848401525b50505050565b600060028204905060018216806200069b57607f821691505b60208210811415620006b257620006b1620006ee565b5b50919050565b620006c38262000765565b810181811067ffffffffffffffff82111715620006e557620006e46200071d565b5b80604052505050565b7f4e487b7100000000000000000000000000000000000000000000000000000000600052602260045260246000fd5b7f4e487b7100000000000000000000000000000000000000000000000000000000600052604160045260246000fd5b600080fd5b600080fd5b600080fd5b600080fd5b600080fd5b6000601f19601f8301169050919050565b6200078181620005ea565b81146200078d57600080fd5b50565b6200079b81620005fe565b8114620007a757600080fd5b50565b620007b58162000628565b8114620007c157600080fd5b50565b620007cf8162000638565b8114620007db57600080fd5b50565b60805160601c60a05160601c60c05160e05160c01c6101005160e01c6133ac62000836600039600061087e0152600061085b0152600061083a015260006107fe0152600081816106bc015261071001526133ac6000f3fe608060405234801561001057600080fd5b50600436106101165760003560e01c80636352211e116100a2578063a22cb46511610071578063a22cb465146102e1578063a51cccf3146102fd578063b88d4fde1461032d578063c87b56dd14610349578063e985e9c51461037957610116565b80636352211e1461024557806370a08231146102755780637ad82892146102a557806395d89b41146102c357610116565b80631fe543e3116100e95780631fe543e3146101b557806323b872dd146101d157806342842e0e146101ed5780634ded51a7146102095780635dacf5f41461022757610116565b806301ffc9a71461011b57806306fdde031461014b578063081812fc14610169578063095ea7b314610199575b600080fd5b6101356004803603810190610130919061219e565b6103a9565b6040516101429190612760565b60405180910390f35b61015361048b565b60405161016091906127ce565b60405180910390f35b610183600480360381019061017e91906121f8565b61051d565b604051610190919061268c565b60405180910390f35b6101b360048036038101906101ae919061215e565b6105a2565b005b6101cf60048036038101906101ca9190612252565b6106ba565b005b6101eb60048036038101906101e69190612048565b61077a565b005b61020760048036038101906102029190612048565b6107da565b005b6102116107fa565b60405161021e91906129f0565b60405180910390f35b61022f610968565b60405161023c9190612745565b60405180910390f35b61025f600480360381019061025a91906121f8565b610993565b60405161026c919061268c565b60405180910390f35b61028f600480360381019061028a9190611fdb565b610a45565b60405161029c91906129f0565b60405180910390f35b6102ad610afd565b6040516102ba91906129f0565b60405180910390f35b6102cb610b0e565b6040516102d891906127ce565b60405180910390f35b6102fb60048036038101906102f6919061211e565b610ba0565b005b610317600480360381019061031291906121f8565b610bb6565b60405161032491906129f0565b60405180910390f35b6103476004803603810190610342919061209b565b610c54565b005b610363600480360381019061035e91906121f8565b610cb6565b60405161037091906127ce565b60405180910390f35b610393600480360381019061038e9190612008565b610e08565b6040516103a09190612760565b60405180910390f35b60007f80ac58cd000000000000000000000000000000000000000000000000000000007bffffffffffffffffffffffffffffffffffffffffffffffffffffffff1916827bffffffffffffffffffffffffffffffffffffffffffffffffffffffff1916148061047457507f5b5e139f000000000000000000000000000000000000000000000000000000007bffffffffffffffffffffffffffffffffffffffffffffffffffffffff1916827bffffffffffffffffffffffffffffffffffffffffffffffffffffffff1916145b80610484575061048382610e9c565b5b9050919050565b60606000805461049a90612caa565b80601f01602080910402602001604051908101604052809291908181526020018280546104c690612caa565b80156105135780601f106104e857610100808354040283529160200191610513565b820191906000526020600020905b8154815290600101906020018083116104f657829003601f168201915b5050505050905090565b600061052882610f06565b610567576040517f08c379a000000000000000000000000000000000000000000000000000000000815260040161055e90612970565b60405180910390fd5b6004600083815260200190815260200160002060009054906101000a900473ffffffffffffffffffffffffffffffffffffffff169050919050565b60006105ad82610993565b90508073ffffffffffffffffffffffffffffffffffffffff168373ffffffffffffffffffffffffffffffffffffffff16141561061e576040517f08c379a0000000000000000000000000000000000000000000000000000000008152600401610615906129b0565b60405180910390fd5b8073ffffffffffffffffffffffffffffffffffffffff1661063d610f72565b73ffffffffffffffffffffffffffffffffffffffff16148061066c575061066b81610666610f72565b610e08565b5b6106ab576040517f08c379a00000000000000000000000000000000000000000000000000000000081526004016106a2906128b0565b60405180910390fd5b6106b58383610f7a565b505050565b7f000000000000000000000000000000000000000000000000000000000000000073ffffffffffffffffffffffffffffffffffffffff163373ffffffffffffffffffffffffffffffffffffffff161461076c57337f00000000000000000000000000000000000000000000000000000000000000006040517f1cf993f40000000000000000000000000000000000000000000000000000000081526004016107639291906126a7565b60405180910390fd5b6107768282611033565b5050565b61078b610785610f72565b826111ae565b6107ca576040517f08c379a00000000000000000000000000000000000000000000000000000000081526004016107c1906129d0565b60405180910390fd5b6107d583838361128c565b505050565b6107f583838360405180602001604052806000815250610c54565b505050565b60007f000000000000000000000000000000000000000000000000000000000000000073ffffffffffffffffffffffffffffffffffffffff16635d3b1d307f00000000000000000000000000000000000000000000000000000000000000007f000000000000000000000000000000000000000000000000000000000000000060037f000000000000000000000000000000000000000000000000000000000000000060016040518663ffffffff1660e01b81526004016108bf95949392919061277b565b602060405180830381600087803b1580156108d957600080fd5b505af11580156108ed573d6000803e3d6000fd5b505050506040513d601f19601f820116820180604052508101906109119190612225565b9050336008600083815260200190815260200160002060006101000a81548173ffffffffffffffffffffffffffffffffffffffff021916908373ffffffffffffffffffffffffffffffffffffffff16021790555090565b610970611d8a565b6040518060600160405280600a8152602001601e81526020016064815250905090565b6000806002600084815260200190815260200160002060009054906101000a900473ffffffffffffffffffffffffffffffffffffffff169050600073ffffffffffffffffffffffffffffffffffffffff168173ffffffffffffffffffffffffffffffffffffffff161415610a3c576040517f08c379a0000000000000000000000000000000000000000000000000000000008152600401610a33906128f0565b60405180910390fd5b80915050919050565b60008073ffffffffffffffffffffffffffffffffffffffff168273ffffffffffffffffffffffffffffffffffffffff161415610ab6576040517f08c379a0000000000000000000000000000000000000000000000000000000008152600401610aad906128d0565b60405180910390fd5b600360008373ffffffffffffffffffffffffffffffffffffffff1673ffffffffffffffffffffffffffffffffffffffff168152602001908152602001600020549050919050565b6000610b0960076114f3565b905090565b606060018054610b1d90612caa565b80601f0160208091040260200160405190810160405280929190818152602001828054610b4990612caa565b8015610b965780601f10610b6b57610100808354040283529160200191610b96565b820191906000526020600020905b815481529060010190602001808311610b7957829003601f168201915b5050505050905090565b610bb2610bab610f72565b8383611501565b5050565b600080600090506000610bc7610968565b9050600092505b6003831015610c4c57818410158015610c085750808360038110610bf557610bf4612e14565b5b602002015182610c059190612afd565b84105b15610c14575050610c4f565b808360038110610c2757610c26612e14565b5b602002015182610c379190612afd565b91508280610c4490612d0d565b935050610bce565b50505b919050565b610c65610c5f610f72565b836111ae565b610ca4576040517f08c379a0000000000000000000000000000000000000000000000000000000008152600401610c9b906129d0565b60405180910390fd5b610cb08484848461166e565b50505050565b6060610cc182610f06565b610d00576040517f08c379a0000000000000000000000000000000000000000000000000000000008152600401610cf790612950565b60405180910390fd5b6000600660008481526020019081526020016000208054610d2090612caa565b80601f0160208091040260200160405190810160405280929190818152602001828054610d4c90612caa565b8015610d995780601f10610d6e57610100808354040283529160200191610d99565b820191906000526020600020905b815481529060010190602001808311610d7c57829003601f168201915b505050505090506000610daa6116ca565b9050600081511415610dc0578192505050610e03565b600082511115610df5578082604051602001610ddd929190612668565b60405160208183030381529060405292505050610e03565b610dfe846116e1565b925050505b919050565b6000600560008473ffffffffffffffffffffffffffffffffffffffff1673ffffffffffffffffffffffffffffffffffffffff16815260200190815260200160002060008373ffffffffffffffffffffffffffffffffffffffff1673ffffffffffffffffffffffffffffffffffffffff16815260200190815260200160002060009054906101000a900460ff16905092915050565b60007f01ffc9a7000000000000000000000000000000000000000000000000000000007bffffffffffffffffffffffffffffffffffffffffffffffffffffffff1916827bffffffffffffffffffffffffffffffffffffffffffffffffffffffff1916149050919050565b60008073ffffffffffffffffffffffffffffffffffffffff166002600084815260200190815260200160002060009054906101000a900473ffffffffffffffffffffffffffffffffffffffff1673ffffffffffffffffffffffffffffffffffffffff1614159050919050565b600033905090565b816004600083815260200190815260200160002060006101000a81548173ffffffffffffffffffffffffffffffffffffffff021916908373ffffffffffffffffffffffffffffffffffffffff160217905550808273ffffffffffffffffffffffffffffffffffffffff16610fed83610993565b73ffffffffffffffffffffffffffffffffffffffff167f8c5be1e5ebec7d5bd14f71427d1e84f3dd0314c0f7b2291e5b200ac8c7c3b92560405160405180910390a45050565b60006008600084815260200190815260200160002060009054906101000a900473ffffffffffffffffffffffffffffffffffffffff169050600061107760076114f3565b90506110836007611788565b600060648460008151811061109b5761109a612e14565b5b60200260200101516110ad9190612d56565b905060006110ba82610bb6565b90506110c6848461179e565b61116d83600983600381106110de576110dd612e14565b5b0180546110ea90612caa565b80601f016020809104026020016040519081016040528092919081815260200182805461111690612caa565b80156111635780601f1061113857610100808354040283529160200191611163565b820191906000526020600020905b81548152906001019060200180831161114657829003601f168201915b50505050506117bc565b7f4e89a8b430df5962e6059e5b9030fc9e31c43ee42f4d3b75bfc312fda072479b338460405161119e92919061271c565b60405180910390a1505050505050565b60006111b982610f06565b6111f8576040517f08c379a00000000000000000000000000000000000000000000000000000000081526004016111ef90612890565b60405180910390fd5b600061120383610993565b90508073ffffffffffffffffffffffffffffffffffffffff168473ffffffffffffffffffffffffffffffffffffffff16148061124557506112448185610e08565b5b8061128357508373ffffffffffffffffffffffffffffffffffffffff1661126b8461051d565b73ffffffffffffffffffffffffffffffffffffffff16145b91505092915050565b8273ffffffffffffffffffffffffffffffffffffffff166112ac82610993565b73ffffffffffffffffffffffffffffffffffffffff1614611302576040517f08c379a00000000000000000000000000000000000000000000000000000000081526004016112f990612810565b60405180910390fd5b600073ffffffffffffffffffffffffffffffffffffffff168273ffffffffffffffffffffffffffffffffffffffff161415611372576040517f08c379a000000000000000000000000000000000000000000000000000000000815260040161136990612850565b60405180910390fd5b61137d838383611830565b611388600082610f7a565b6001600360008573ffffffffffffffffffffffffffffffffffffffff1673ffffffffffffffffffffffffffffffffffffffff16815260200190815260200160002060008282546113d89190612b84565b925050819055506001600360008473ffffffffffffffffffffffffffffffffffffffff1673ffffffffffffffffffffffffffffffffffffffff168152602001908152602001600020600082825461142f9190612afd565b92505081905550816002600083815260200190815260200160002060006101000a81548173ffffffffffffffffffffffffffffffffffffffff021916908373ffffffffffffffffffffffffffffffffffffffff160217905550808273ffffffffffffffffffffffffffffffffffffffff168473ffffffffffffffffffffffffffffffffffffffff167fddf252ad1be2c89b69c2b068fc378daa952ba7f163c4a11628f55a4df523b3ef60405160405180910390a46114ee838383611835565b505050565b600081600001549050919050565b8173ffffffffffffffffffffffffffffffffffffffff168373ffffffffffffffffffffffffffffffffffffffff161415611570576040517f08c379a000000000000000000000000000000000000000000000000000000000815260040161156790612870565b60405180910390fd5b80600560008573ffffffffffffffffffffffffffffffffffffffff1673ffffffffffffffffffffffffffffffffffffffff16815260200190815260200160002060008473ffffffffffffffffffffffffffffffffffffffff1673ffffffffffffffffffffffffffffffffffffffff16815260200190815260200160002060006101000a81548160ff0219169083151502179055508173ffffffffffffffffffffffffffffffffffffffff168373ffffffffffffffffffffffffffffffffffffffff167f17307eab39ab6107e8899845ad3d59bd9653f200f220920489ca2b5937696c31836040516116619190612760565b60405180910390a3505050565b61167984848461128c565b6116858484848461183a565b6116c4576040517f08c379a00000000000000000000000000000000000000000000000000000000081526004016116bb906127f0565b60405180910390fd5b50505050565b606060405180602001604052806000815250905090565b60606116ec82610f06565b61172b576040517f08c379a000000000000000000000000000000000000000000000000000000000815260040161172290612990565b60405180910390fd5b60006117356116ca565b905060008151116117555760405180602001604052806000815250611780565b8061175f846119d1565b604051602001611770929190612668565b6040516020818303038152906040525b915050919050565b6001816000016000828254019250508190555050565b6117b8828260405180602001604052806000815250611b32565b5050565b6117c582610f06565b611804576040517f08c379a00000000000000000000000000000000000000000000000000000000081526004016117fb90612910565b60405180910390fd5b8060066000848152602001908152602001600020908051906020019061182b929190611dac565b505050565b505050565b505050565b600061185b8473ffffffffffffffffffffffffffffffffffffffff16611b8d565b156119c4578373ffffffffffffffffffffffffffffffffffffffff1663150b7a02611884610f72565b8786866040518563ffffffff1660e01b81526004016118a694939291906126d0565b602060405180830381600087803b1580156118c057600080fd5b505af19250505080156118f157506040513d601f19601f820116820180604052508101906118ee91906121cb565b60015b611974573d8060008114611921576040519150601f19603f3d011682016040523d82523d6000602084013e611926565b606091505b5060008151141561196c576040517f08c379a0000000000000000000000000000000000000000000000000000000008152600401611963906127f0565b60405180910390fd5b805181602001fd5b63150b7a0260e01b7bffffffffffffffffffffffffffffffffffffffffffffffffffffffff1916817bffffffffffffffffffffffffffffffffffffffffffffffffffffffff1916149150506119c9565b600190505b949350505050565b60606000821415611a19576040518060400160405280600181526020017f30000000000000000000000000000000000000000000000000000000000000008152509050611b2d565b600082905060005b60008214611a4b578080611a3490612d0d565b915050600a82611a449190612b53565b9150611a21565b60008167ffffffffffffffff811115611a6757611a66612e43565b5b6040519080825280601f01601f191660200182016040528015611a995781602001600182028036833780820191505090505b5090505b60008514611b2657600182611ab29190612b84565b9150600a85611ac19190612d56565b6030611acd9190612afd565b60f81b818381518110611ae357611ae2612e14565b5b60200101907effffffffffffffffffffffffffffffffffffffffffffffffffffffffffffff1916908160001a905350600a85611b1f9190612b53565b9450611a9d565b8093505050505b919050565b611b3c8383611bb0565b611b49600084848461183a565b611b88576040517f08c379a0000000000000000000000000000000000000000000000000000000008152600401611b7f906127f0565b60405180910390fd5b505050565b6000808273ffffffffffffffffffffffffffffffffffffffff163b119050919050565b600073ffffffffffffffffffffffffffffffffffffffff168273ffffffffffffffffffffffffffffffffffffffff161415611c20576040517f08c379a0000000000000000000000000000000000000000000000000000000008152600401611c1790612930565b60405180910390fd5b611c2981610f06565b15611c69576040517f08c379a0000000000000000000000000000000000000000000000000000000008152600401611c6090612830565b60405180910390fd5b611c7560008383611830565b6001600360008473ffffffffffffffffffffffffffffffffffffffff1673ffffffffffffffffffffffffffffffffffffffff1681526020019081526020016000206000828254611cc59190612afd565b92505081905550816002600083815260200190815260200160002060006101000a81548173ffffffffffffffffffffffffffffffffffffffff021916908373ffffffffffffffffffffffffffffffffffffffff160217905550808273ffffffffffffffffffffffffffffffffffffffff16600073ffffffffffffffffffffffffffffffffffffffff167fddf252ad1be2c89b69c2b068fc378daa952ba7f163c4a11628f55a4df523b3ef60405160405180910390a4611d8660008383611835565b5050565b6040518060600160405280600390602082028036833780820191505090505090565b828054611db890612caa565b90600052602060002090601f016020900481019282611dda5760008555611e21565b82601f10611df357805160ff1916838001178555611e21565b82800160010185558215611e21579182015b82811115611e20578251825591602001919060010190611e05565b5b509050611e2e9190611e32565b5090565b5b80821115611e4b576000816000905550600101611e33565b5090565b6000611e62611e5d84612a30565b612a0b565b90508083825260208201905082856020860282011115611e8557611e84612e77565b5b60005b85811015611eb55781611e9b8882611fb1565b845260208401935060208301925050600181019050611e88565b5050509392505050565b6000611ed2611ecd84612a5c565b612a0b565b905082815260208101848484011115611eee57611eed612e7c565b5b611ef9848285612c68565b509392505050565b600081359050611f108161331a565b92915050565b600082601f830112611f2b57611f2a612e72565b5b8135611f3b848260208601611e4f565b91505092915050565b600081359050611f5381613331565b92915050565b600081359050611f6881613348565b92915050565b600081519050611f7d81613348565b92915050565b600082601f830112611f9857611f97612e72565b5b8135611fa8848260208601611ebf565b91505092915050565b600081359050611fc08161335f565b92915050565b600081519050611fd58161335f565b92915050565b600060208284031215611ff157611ff0612e86565b5b6000611fff84828501611f01565b91505092915050565b6000806040838503121561201f5761201e612e86565b5b600061202d85828601611f01565b925050602061203e85828601611f01565b9150509250929050565b60008060006060848603121561206157612060612e86565b5b600061206f86828701611f01565b935050602061208086828701611f01565b925050604061209186828701611fb1565b9150509250925092565b600080600080608085870312156120b5576120b4612e86565b5b60006120c387828801611f01565b94505060206120d487828801611f01565b93505060406120e587828801611fb1565b925050606085013567ffffffffffffffff81111561210657612105612e81565b5b61211287828801611f83565b91505092959194509250565b6000806040838503121561213557612134612e86565b5b600061214385828601611f01565b925050602061215485828601611f44565b9150509250929050565b6000806040838503121561217557612174612e86565b5b600061218385828601611f01565b925050602061219485828601611fb1565b9150509250929050565b6000602082840312156121b4576121b3612e86565b5b60006121c284828501611f59565b91505092915050565b6000602082840312156121e1576121e0612e86565b5b60006121ef84828501611f6e565b91505092915050565b60006020828403121561220e5761220d612e86565b5b600061221c84828501611fb1565b91505092915050565b60006020828403121561223b5761223a612e86565b5b600061224984828501611fc6565b91505092915050565b6000806040838503121561226957612268612e86565b5b600061227785828601611fb1565b925050602083013567ffffffffffffffff81111561229857612297612e81565b5b6122a485828601611f16565b9150509250929050565b60006122ba838361262c565b60208301905092915050565b6122cf81612bb8565b82525050565b6122de81612a97565b6122e88184612ac5565b92506122f382612a8d565b8060005b8381101561232457815161230b87826122ae565b965061231683612ab8565b9250506001810190506122f7565b505050505050565b61233581612bca565b82525050565b61234481612bd6565b82525050565b600061235582612aa2565b61235f8185612ad0565b935061236f818560208601612c77565b61237881612e8b565b840191505092915050565b600061238e82612aad565b6123988185612ae1565b93506123a8818560208601612c77565b6123b181612e8b565b840191505092915050565b60006123c782612aad565b6123d18185612af2565b93506123e1818560208601612c77565b80840191505092915050565b60006123fa603283612ae1565b915061240582612e9c565b604082019050919050565b600061241d602583612ae1565b915061242882612eeb565b604082019050919050565b6000612440601c83612ae1565b915061244b82612f3a565b602082019050919050565b6000612463602483612ae1565b915061246e82612f63565b604082019050919050565b6000612486601983612ae1565b915061249182612fb2565b602082019050919050565b60006124a9602c83612ae1565b91506124b482612fdb565b604082019050919050565b60006124cc603883612ae1565b91506124d78261302a565b604082019050919050565b60006124ef602a83612ae1565b91506124fa82613079565b604082019050919050565b6000612512602983612ae1565b915061251d826130c8565b604082019050919050565b6000612535602e83612ae1565b915061254082613117565b604082019050919050565b6000612558602083612ae1565b915061256382613166565b602082019050919050565b600061257b603183612ae1565b91506125868261318f565b604082019050919050565b600061259e602c83612ae1565b91506125a9826131de565b604082019050919050565b60006125c1602f83612ae1565b91506125cc8261322d565b604082019050919050565b60006125e4602183612ae1565b91506125ef8261327c565b604082019050919050565b6000612607603183612ae1565b9150612612826132cb565b604082019050919050565b61262681612c0c565b82525050565b61263581612c3a565b82525050565b61264481612c3a565b82525050565b61265381612c44565b82525050565b61266281612c54565b82525050565b600061267482856123bc565b915061268082846123bc565b91508190509392505050565b60006020820190506126a160008301846122c6565b92915050565b60006040820190506126bc60008301856122c6565b6126c960208301846122c6565b9392505050565b60006080820190506126e560008301876122c6565b6126f260208301866122c6565b6126ff604083018561263b565b8181036060830152612711818461234a565b905095945050505050565b600060408201905061273160008301856122c6565b61273e602083018461263b565b9392505050565b600060608201905061275a60008301846122d5565b92915050565b6000602082019050612775600083018461232c565b92915050565b600060a082019050612790600083018861233b565b61279d6020830187612659565b6127aa604083018661261d565b6127b7606083018561264a565b6127c4608083018461264a565b9695505050505050565b600060208201905081810360008301526127e88184612383565b905092915050565b60006020820190508181036000830152612809816123ed565b9050919050565b6000602082019050818103600083015261282981612410565b9050919050565b6000602082019050818103600083015261284981612433565b9050919050565b6000602082019050818103600083015261286981612456565b9050919050565b6000602082019050818103600083015261288981612479565b9050919050565b600060208201905081810360008301526128a98161249c565b9050919050565b600060208201905081810360008301526128c9816124bf565b9050919050565b600060208201905081810360008301526128e9816124e2565b9050919050565b6000602082019050818103600083015261290981612505565b9050919050565b6000602082019050818103600083015261292981612528565b9050919050565b600060208201905081810360008301526129498161254b565b9050919050565b600060208201905081810360008301526129698161256e565b9050919050565b6000602082019050818103600083015261298981612591565b9050919050565b600060208201905081810360008301526129a9816125b4565b9050919050565b600060208201905081810360008301526129c9816125d7565b9050919050565b600060208201905081810360008301526129e9816125fa565b9050919050565b6000602082019050612a05600083018461263b565b92915050565b6000612a15612a26565b9050612a218282612cdc565b919050565b6000604051905090565b600067ffffffffffffffff821115612a4b57612a4a612e43565b5b602082029050602081019050919050565b600067ffffffffffffffff821115612a7757612a76612e43565b5b612a8082612e8b565b9050602081019050919050565b6000819050919050565b600060039050919050565b600081519050919050565b600081519050919050565b6000602082019050919050565b600081905092915050565b600082825260208201905092915050565b600082825260208201905092915050565b600081905092915050565b6000612b0882612c3a565b9150612b1383612c3a565b9250827fffffffffffffffffffffffffffffffffffffffffffffffffffffffffffffffff03821115612b4857612b47612d87565b5b828201905092915050565b6000612b5e82612c3a565b9150612b6983612c3a565b925082612b7957612b78612db6565b5b828204905092915050565b6000612b8f82612c3a565b9150612b9a83612c3a565b925082821015612bad57612bac612d87565b5b828203905092915050565b6000612bc382612c1a565b9050919050565b60008115159050919050565b6000819050919050565b60007fffffffff0000000000000000000000000000000000000000000000000000000082169050919050565b600061ffff82169050919050565b600073ffffffffffffffffffffffffffffffffffffffff82169050919050565b6000819050919050565b600063ffffffff82169050919050565b600067ffffffffffffffff82169050919050565b82818337600083830152505050565b60005b83811015612c95578082015181840152602081019050612c7a565b83811115612ca4576000848401525b50505050565b60006002820490506001821680612cc257607f821691505b60208210811415612cd657612cd5612de5565b5b50919050565b612ce582612e8b565b810181811067ffffffffffffffff82111715612d0457612d03612e43565b5b80604052505050565b6000612d1882612c3a565b91507fffffffffffffffffffffffffffffffffffffffffffffffffffffffffffffffff821415612d4b57612d4a612d87565b5b600182019050919050565b6000612d6182612c3a565b9150612d6c83612c3a565b925082612d7c57612d7b612db6565b5b828206905092915050565b7f4e487b7100000000000000000000000000000000000000000000000000000000600052601160045260246000fd5b7f4e487b7100000000000000000000000000000000000000000000000000000000600052601260045260246000fd5b7f4e487b7100000000000000000000000000000000000000000000000000000000600052602260045260246000fd5b7f4e487b7100000000000000000000000000000000000000000000000000000000600052603260045260246000fd5b7f4e487b7100000000000000000000000000000000000000000000000000000000600052604160045260246000fd5b600080fd5b600080fd5b600080fd5b600080fd5b600080fd5b6000601f19601f8301169050919050565b7f4552433732313a207472616e7366657220746f206e6f6e20455243373231526560008201527f63656976657220696d706c656d656e7465720000000000000000000000000000602082015250565b7f4552433732313a207472616e736665722066726f6d20696e636f72726563742060008201527f6f776e6572000000000000000000000000000000000000000000000000000000602082015250565b7f4552433732313a20746f6b656e20616c7265616479206d696e74656400000000600082015250565b7f4552433732313a207472616e7366657220746f20746865207a65726f2061646460008201527f7265737300000000000000000000000000000000000000000000000000000000602082015250565b7f4552433732313a20617070726f766520746f2063616c6c657200000000000000600082015250565b7f4552433732313a206f70657261746f7220717565727920666f72206e6f6e657860008201527f697374656e7420746f6b656e0000000000000000000000000000000000000000602082015250565b7f4552433732313a20617070726f76652063616c6c6572206973206e6f74206f7760008201527f6e6572206e6f7220617070726f76656420666f7220616c6c0000000000000000602082015250565b7f4552433732313a2062616c616e636520717565727920666f7220746865207a6560008201527f726f206164647265737300000000000000000000000000000000000000000000602082015250565b7f4552433732313a206f776e657220717565727920666f72206e6f6e657869737460008201527f656e7420746f6b656e0000000000000000000000000000000000000000000000602082015250565b7f45524337323155524953746f726167653a2055524920736574206f66206e6f6e60008201527f6578697374656e7420746f6b656e000000000000000000000000000000000000602082015250565b7f4552433732313a206d696e7420746f20746865207a65726f2061646472657373600082015250565b7f45524337323155524953746f726167653a2055524920717565727920666f722060008201527f6e6f6e6578697374656e7420746f6b656e000000000000000000000000000000602082015250565b7f4552433732313a20617070726f76656420717565727920666f72206e6f6e657860008201527f697374656e7420746f6b656e0000000000000000000000000000000000000000602082015250565b7f4552433732314d657461646174613a2055524920717565727920666f72206e6f60008201527f6e6578697374656e7420746f6b656e0000000000000000000000000000000000602082015250565b7f4552433732313a20617070726f76616c20746f2063757272656e74206f776e6560008201527f7200000000000000000000000000000000000000000000000000000000000000602082015250565b7f4552433732313a207472616e736665722063616c6c6572206973206e6f74206f60008201527f776e6572206e6f7220617070726f766564000000000000000000000000000000602082015250565b61332381612bb8565b811461332e57600080fd5b50565b61333a81612bca565b811461334557600080fd5b50565b61335181612be0565b811461335c57600080fd5b50565b61336881612c3a565b811461337357600080fd5b5056fea264697066735822122042eaf08cb411b7ed0288cdf1cb22c2382a689c2f603b8fc7ab5b3d22417a93a864736f6c63430008070033",
  "linkReferences": {},
  "deployedLinkReferences": {}
}