{
  "_format": "hh-sol-artifact-1",
  "contractName": "RandomPuppy",
  "sourceName": "contracts/RandomPuppy.sol",
  "abi": [
    {
      "inputs": [
        {
          "internalType": "address",
          "name": "vrfCoordinatorV2",
          "type": "address"
        },
        {
          "internalType": "bytes32",
          "name": "keyHash",
          "type": "bytes32"
        },
        {
          "internalType": "uint64",
          "name": "subscriptionId",
          "type": "uint64"
        },
        {
          "internalType": "uint32",
          "name": "callbackGasLimit",
          "type": "uint32"
        },
        {
          "internalType": "string[3]",
          "name": "puppyTokenUris",
          "type": "string[3]"
        }
      ],
      "stateMutability": "nonpayable",
      "type": "constructor"
    },
    {
      "inputs": [
        {
          "internalType": "address",
          "name": "have",
          "type": "address"
        },
        {
          "internalType": "address",
          "name": "want",
          "type": "address"
        }
      ],
      "name": "OnlyCoordinatorCanFulfill",
      "type": "error"
    },
    {
      "anonymous": false,
      "inputs": [
        {
          "indexed": true,
          "internalType": "address",
          "name": "owner",
          "type": "address"
        },
        {
          "indexed": true,
          "internalType": "address",
          "name": "approved",
          "type": "address"
        },
        {
          "indexed": true,
          "internalType": "uint256",
          "name": "tokenId",
          "type": "uint256"
        }
      ],
      "name": "Approval",
      "type": "event"
    },
    {
      "anonymous": false,
      "inputs": [
        {
          "indexed": true,
          "internalType": "address",
          "name": "owner",
          "type": "address"
        },
        {
          "indexed": true,
          "internalType": "address",
          "name": "operator",
          "type": "address"
        },
        {
          "indexed": false,
          "internalType": "bool",
          "name": "approved",
          "type": "bool"
        }
      ],
      "name": "ApprovalForAll",
      "type": "event"
    },
    {
      "anonymous": false,
      "inputs": [
        {
          "indexed": true,
          "internalType": "address",
          "name": "from",
          "type": "address"
        },
        {
          "indexed": true,
          "internalType": "address",
          "name": "to",
          "type": "address"
        },
        {
          "indexed": true,
          "internalType": "uint256",
          "name": "tokenId",
          "type": "uint256"
        }
      ],
      "name": "Transfer",
      "type": "event"
    },
    {
      "inputs": [
        {
          "internalType": "address",
          "name": "to",
          "type": "address"
        },
        {
          "internalType": "uint256",
          "name": "tokenId",
          "type": "uint256"
        }
      ],
      "name": "approve",
      "outputs": [],
      "stateMutability": "nonpayable",
      "type": "function"
    },
    {
      "inputs": [
        {
          "internalType": "address",
          "name": "owner",
          "type": "address"
        }
      ],
      "name": "balanceOf",
      "outputs": [
        {
          "internalType": "uint256",
          "name": "",
          "type": "uint256"
        }
      ],
      "stateMutability": "view",
      "type": "function"
    },
    {
      "inputs": [
        {
          "internalType": "uint256",
          "name": "tokenId",
          "type": "uint256"
        }
      ],
      "name": "getApproved",
      "outputs": [
        {
          "internalType": "address",
          "name": "",
          "type": "address"
        }
      ],
      "stateMutability": "view",
      "type": "function"
    },
    {
      "inputs": [
        {
          "internalType": "uint256",
          "name": "moddedRng",
          "type": "uint256"
        }
      ],
      "name": "getBreedFromModdedRng",
      "outputs": [
        {
          "internalType": "uint256",
          "name": "i",
          "type": "uint256"
        }
      ],
      "stateMutability": "pure",
      "type": "function"
    },
    {
      "inputs": [],
      "name": "getChanceArray",
      "outputs": [
        {
          "internalType": "uint256[3]",
          "name": "",
          "type": "uint256[3]"
        }
      ],
      "stateMutability": "pure",
      "type": "function"
    },
    {
      "inputs": [
        {
          "internalType": "address",
          "name": "owner",
          "type": "address"
        },
        {
          "internalType": "address",
          "name": "operator",
          "type": "address"
        }
      ],
      "name": "isApprovedForAll",
      "outputs": [
        {
          "internalType": "bool",
          "name": "",
          "type": "bool"
        }
      ],
      "stateMutability": "view",
      "type": "function"
    },
    {
      "inputs": [],
      "name": "name",
      "outputs": [
        {
          "internalType": "string",
          "name": "",
          "type": "string"
        }
      ],
      "stateMutability": "view",
      "type": "function"
    },
    {
      "inputs": [
        {
          "internalType": "uint256",
          "name": "tokenId",
          "type": "uint256"
        }
      ],
      "name": "ownerOf",
      "outputs": [
        {
          "internalType": "address",
          "name": "",
          "type": "address"
        }
      ],
      "stateMutability": "view",
      "type": "function"
    },
    {
      "inputs": [
        {
          "internalType": "uint256",
          "name": "requestId",
          "type": "uint256"
        },
        {
          "internalType": "uint256[]",
          "name": "randomWords",
          "type": "uint256[]"
        }
      ],
      "name": "rawFulfillRandomWords",
      "outputs": [],
      "stateMutability": "nonpayable",
      "type": "function"
    },
    {
      "inputs": [],
      "name": "requestPuppy",
      "outputs": [
        {
          "internalType": "uint256",
          "name": "requestId",
          "type": "uint256"
        }
      ],
      "stateMutability": "nonpayable",
      "type": "function"
    },
    {
      "inputs": [
        {
          "internalType": "address",
          "name": "from",
          "type": "address"
        },
        {
          "internalType": "address",
          "name": "to",
          "type": "address"
        },
        {
          "internalType": "uint256",
          "name": "tokenId",
          "type": "uint256"
        }
      ],
      "name": "safeTransferFrom",
      "outputs": [],
      "stateMutability": "nonpayable",
      "type": "function"
    },
    {
      "inputs": [
        {
          "internalType": "address",
          "name": "from",
          "type": "address"
        },
        {
          "internalType": "address",
          "name": "to",
          "type": "address"
        },
        {
          "internalType": "uint256",
          "name": "tokenId",
          "type": "uint256"
        },
        {
          "internalType": "bytes",
          "name": "_data",
          "type": "bytes"
        }
      ],
      "name": "safeTransferFrom",
      "outputs": [],
      "stateMutability": "nonpayable",
      "type": "function"
    },
    {
      "inputs": [
        {
          "internalType": "address",
          "name": "operator",
          "type": "address"
        },
        {
          "internalType": "bool",
          "name": "approved",
          "type": "bool"
        }
      ],
      "name": "setApprovalForAll",
      "outputs": [],
      "stateMutability": "nonpayable",
      "type": "function"
    },
    {
      "inputs": [
        {
          "internalType": "bytes4",
          "name": "interfaceId",
          "type": "bytes4"
        }
      ],
      "name": "supportsInterface",
      "outputs": [
        {
          "internalType": "bool",
          "name": "",
          "type": "bool"
        }
      ],
      "stateMutability": "view",
      "type": "function"
    },
    {
      "inputs": [],
      "name": "symbol",
      "outputs": [
        {
          "internalType": "string",
          "name": "",
          "type": "string"
        }
      ],
      "stateMutability": "view",
      "type": "function"
    },
    {
      "inputs": [
        {
          "internalType": "uint256",
          "name": "tokenId",
          "type": "uint256"
        }
      ],
      "name": "tokenURI",
      "outputs": [
        {
          "internalType": "string",
          "name": "",
          "type": "string"
        }
      ],
      "stateMutability": "view",
      "type": "function"
    },
    {
      "inputs": [
        {
          "internalType": "address",
          "name": "from",
          "type": "address"
        },
        {
          "internalType": "address",
          "name": "to",
          "type": "address"
        },
        {
          "internalType": "uint256",
          "name": "tokenId",
          "type": "uint256"
        }
      ],
      "name": "transferFrom",
      "outputs": [],
      "stateMutability": "nonpayable",
      "type": "function"
    }
  ],
  "bytecode": "0x6101206040523480156200001257600080fd5b5060405162003b4638038062003b468339818101604052810190620000389190620004bb565b846040518060400160405280600c81526020017f52616e646f6d20507570707900000000000000000000000000000000000000008152506040518060400160405280600581526020017f50555050590000000000000000000000000000000000000000000000000000008152508160009080519060200190620000bd929190620001a6565b508060019080519060200190620000d6929190620001a6565b5050508073ffffffffffffffffffffffffffffffffffffffff1660808173ffffffffffffffffffffffffffffffffffffffff1660601b81525050508473ffffffffffffffffffffffffffffffffffffffff1660a08173ffffffffffffffffffffffffffffffffffffffff1660601b815250508360c081815250508267ffffffffffffffff1660e08167ffffffffffffffff1660c01b815250508163ffffffff166101008163ffffffff1660e01b815250508060099060036200019a92919062000237565b505050505050620007de565b828054620001b49062000682565b90600052602060002090601f016020900481019282620001d8576000855562000224565b82601f10620001f357805160ff191683800117855562000224565b8280016001018555821562000224579182015b828111156200022357825182559160200191906001019062000206565b5b50905062000233919062000291565b5090565b82600381019282156200027e579160200282015b828111156200027d5782518290805190602001906200026c929190620001a6565b50916020019190600101906200024b565b5b5090506200028d9190620002b0565b5090565b5b80821115620002ac57600081600090555060010162000292565b5090565b5b80821115620002d45760008181620002ca9190620002d8565b50600101620002b1565b5090565b508054620002e69062000682565b6000825580601f10620002fa57506200031b565b601f0160209004906000526020600020908101906200031a919062000291565b5b50565b6000620003356200032f846200058b565b62000562565b9050808285602086028201111562000352576200035162000751565b5b60005b85811015620003a757815167ffffffffffffffff8111156200037c576200037b6200074c565b5b8086016200038b89826200045a565b8552602085019450602084019350505060018101905062000355565b5050509392505050565b6000620003c8620003c284620005b4565b62000562565b905082815260208101848484011115620003e757620003e662000756565b5b620003f48482856200064c565b509392505050565b6000815190506200040d8162000776565b92915050565b600082601f8301126200042b576200042a6200074c565b5b60036200043a8482856200031e565b91505092915050565b600081519050620004548162000790565b92915050565b600082601f8301126200047257620004716200074c565b5b815162000484848260208601620003b1565b91505092915050565b6000815190506200049e81620007aa565b92915050565b600081519050620004b581620007c4565b92915050565b600080600080600060a08688031215620004da57620004d962000760565b5b6000620004ea88828901620003fc565b9550506020620004fd8882890162000443565b94505060406200051088828901620004a4565b935050606062000523888289016200048d565b925050608086015167ffffffffffffffff8111156200054757620005466200075b565b5b620005558882890162000413565b9150509295509295909350565b60006200056e62000581565b90506200057c8282620006b8565b919050565b6000604051905090565b600067ffffffffffffffff821115620005a957620005a86200071d565b5b602082029050919050565b600067ffffffffffffffff821115620005d257620005d16200071d565b5b620005dd8262000765565b9050602081019050919050565b6000620005f78262000608565b9050919050565b6000819050919050565b600073ffffffffffffffffffffffffffffffffffffffff82169050919050565b600063ffffffff82169050919050565b600067ffffffffffffffff82169050919050565b60005b838110156200066c5780820151818401526020810190506200064f565b838111156200067c576000848401525b50505050565b600060028204905060018216806200069b57607f821691505b60208210811415620006b257620006b1620006ee565b5b50919050565b620006c38262000765565b810181811067ffffffffffffffff82111715620006e557620006e46200071d565b5b80604052505050565b7f4e487b7100000000000000000000000000000000000000000000000000000000600052602260045260246000fd5b7f4e487b7100000000000000000000000000000000000000000000000000000000600052604160045260246000fd5b600080fd5b600080fd5b600080fd5b600080fd5b600080fd5b6000601f19601f8301169050919050565b6200078181620005ea565b81146200078d57600080fd5b50565b6200079b81620005fe565b8114620007a757600080fd5b50565b620007b58162000628565b8114620007c157600080fd5b50565b620007cf8162000638565b8114620007db57600080fd5b50565b60805160601c60a05160601c60c05160e05160c01c6101005160e01c6133106200083660003960006108550152600061083201526000610811015260006107d501526000818161069301526106e701526133106000f3fe608060405234801561001057600080fd5b506004361061010b5760003560e01c80635dacf5f4116100a2578063a22cb46511610071578063a22cb465146102b8578063a51cccf3146102d4578063b88d4fde14610304578063c87b56dd14610320578063e985e9c5146103505761010b565b80635dacf5f41461021c5780636352211e1461023a57806370a082311461026a57806395d89b411461029a5761010b565b80631fe543e3116100de5780631fe543e3146101aa57806323b872dd146101c657806342842e0e146101e25780634ded51a7146101fe5761010b565b806301ffc9a71461011057806306fdde0314610140578063081812fc1461015e578063095ea7b31461018e575b600080fd5b61012a6004803603810190610125919061212b565b610380565b60405161013791906126c4565b60405180910390f35b610148610462565b6040516101559190612732565b60405180910390f35b61017860048036038101906101739190612185565b6104f4565b6040516101859190612619565b60405180910390f35b6101a860048036038101906101a391906120eb565b610579565b005b6101c460048036038101906101bf91906121df565b610691565b005b6101e060048036038101906101db9190611fd5565b610751565b005b6101fc60048036038101906101f79190611fd5565b6107b1565b005b6102066107d1565b6040516102139190612954565b60405180910390f35b61022461093f565b60405161023191906126a9565b60405180910390f35b610254600480360381019061024f9190612185565b61096a565b6040516102619190612619565b60405180910390f35b610284600480360381019061027f9190611f68565b610a1c565b6040516102919190612954565b60405180910390f35b6102a2610ad4565b6040516102af9190612732565b60405180910390f35b6102d260048036038101906102cd91906120ab565b610b66565b005b6102ee60048036038101906102e99190612185565b610b7c565b6040516102fb9190612954565b60405180910390f35b61031e60048036038101906103199190612028565b610c1a565b005b61033a60048036038101906103359190612185565b610c7c565b6040516103479190612732565b60405180910390f35b61036a60048036038101906103659190611f95565b610dce565b60405161037791906126c4565b60405180910390f35b60007f80ac58cd000000000000000000000000000000000000000000000000000000007bffffffffffffffffffffffffffffffffffffffffffffffffffffffff1916827bffffffffffffffffffffffffffffffffffffffffffffffffffffffff1916148061044b57507f5b5e139f000000000000000000000000000000000000000000000000000000007bffffffffffffffffffffffffffffffffffffffffffffffffffffffff1916827bffffffffffffffffffffffffffffffffffffffffffffffffffffffff1916145b8061045b575061045a82610e62565b5b9050919050565b60606000805461047190612c0e565b80601f016020809104026020016040519081016040528092919081815260200182805461049d90612c0e565b80156104ea5780601f106104bf576101008083540402835291602001916104ea565b820191906000526020600020905b8154815290600101906020018083116104cd57829003601f168201915b5050505050905090565b60006104ff82610ecc565b61053e576040517f08c379a0000000000000000000000000000000000000000000000000000000008152600401610535906128d4565b60405180910390fd5b6004600083815260200190815260200160002060009054906101000a900473ffffffffffffffffffffffffffffffffffffffff169050919050565b60006105848261096a565b90508073ffffffffffffffffffffffffffffffffffffffff168373ffffffffffffffffffffffffffffffffffffffff1614156105f5576040517f08c379a00000000000000000000000000000000000000000000000000000000081526004016105ec90612914565b60405180910390fd5b8073ffffffffffffffffffffffffffffffffffffffff16610614610f38565b73ffffffffffffffffffffffffffffffffffffffff16148061064357506106428161063d610f38565b610dce565b5b610682576040517f08c379a000000000000000000000000000000000000000000000000000000000815260040161067990612814565b60405180910390fd5b61068c8383610f40565b505050565b7f000000000000000000000000000000000000000000000000000000000000000073ffffffffffffffffffffffffffffffffffffffff163373ffffffffffffffffffffffffffffffffffffffff161461074357337f00000000000000000000000000000000000000000000000000000000000000006040517f1cf993f400000000000000000000000000000000000000000000000000000000815260040161073a929190612634565b60405180910390fd5b61074d8282610ff9565b5050565b61076261075c610f38565b8261113b565b6107a1576040517f08c379a000000000000000000000000000000000000000000000000000000000815260040161079890612934565b60405180910390fd5b6107ac838383611219565b505050565b6107cc83838360405180602001604052806000815250610c1a565b505050565b60007f000000000000000000000000000000000000000000000000000000000000000073ffffffffffffffffffffffffffffffffffffffff16635d3b1d307f00000000000000000000000000000000000000000000000000000000000000007f000000000000000000000000000000000000000000000000000000000000000060037f000000000000000000000000000000000000000000000000000000000000000060016040518663ffffffff1660e01b81526004016108969594939291906126df565b602060405180830381600087803b1580156108b057600080fd5b505af11580156108c4573d6000803e3d6000fd5b505050506040513d601f19601f820116820180604052508101906108e891906121b2565b9050336008600083815260200190815260200160002060006101000a81548173ffffffffffffffffffffffffffffffffffffffff021916908373ffffffffffffffffffffffffffffffffffffffff16021790555090565b610947611d17565b6040518060600160405280600a8152602001601e81526020016064815250905090565b6000806002600084815260200190815260200160002060009054906101000a900473ffffffffffffffffffffffffffffffffffffffff169050600073ffffffffffffffffffffffffffffffffffffffff168173ffffffffffffffffffffffffffffffffffffffff161415610a13576040517f08c379a0000000000000000000000000000000000000000000000000000000008152600401610a0a90612854565b60405180910390fd5b80915050919050565b60008073ffffffffffffffffffffffffffffffffffffffff168273ffffffffffffffffffffffffffffffffffffffff161415610a8d576040517f08c379a0000000000000000000000000000000000000000000000000000000008152600401610a8490612834565b60405180910390fd5b600360008373ffffffffffffffffffffffffffffffffffffffff1673ffffffffffffffffffffffffffffffffffffffff168152602001908152602001600020549050919050565b606060018054610ae390612c0e565b80601f0160208091040260200160405190810160405280929190818152602001828054610b0f90612c0e565b8015610b5c5780601f10610b3157610100808354040283529160200191610b5c565b820191906000526020600020905b815481529060010190602001808311610b3f57829003601f168201915b5050505050905090565b610b78610b71610f38565b8383611480565b5050565b600080600090506000610b8d61093f565b9050600092505b6003831015610c1257818410158015610bce5750808360038110610bbb57610bba612d78565b5b602002015182610bcb9190612a61565b84105b15610bda575050610c15565b808360038110610bed57610bec612d78565b5b602002015182610bfd9190612a61565b91508280610c0a90612c71565b935050610b94565b50505b919050565b610c2b610c25610f38565b8361113b565b610c6a576040517f08c379a0000000000000000000000000000000000000000000000000000000008152600401610c6190612934565b60405180910390fd5b610c76848484846115ed565b50505050565b6060610c8782610ecc565b610cc6576040517f08c379a0000000000000000000000000000000000000000000000000000000008152600401610cbd906128b4565b60405180910390fd5b6000600660008481526020019081526020016000208054610ce690612c0e565b80601f0160208091040260200160405190810160405280929190818152602001828054610d1290612c0e565b8015610d5f5780601f10610d3457610100808354040283529160200191610d5f565b820191906000526020600020905b815481529060010190602001808311610d4257829003601f168201915b505050505090506000610d70611649565b9050600081511415610d86578192505050610dc9565b600082511115610dbb578082604051602001610da39291906125f5565b60405160208183030381529060405292505050610dc9565b610dc484611660565b925050505b919050565b6000600560008473ffffffffffffffffffffffffffffffffffffffff1673ffffffffffffffffffffffffffffffffffffffff16815260200190815260200160002060008373ffffffffffffffffffffffffffffffffffffffff1673ffffffffffffffffffffffffffffffffffffffff16815260200190815260200160002060009054906101000a900460ff16905092915050565b60007f01ffc9a7000000000000000000000000000000000000000000000000000000007bffffffffffffffffffffffffffffffffffffffffffffffffffffffff1916827bffffffffffffffffffffffffffffffffffffffffffffffffffffffff1916149050919050565b60008073ffffffffffffffffffffffffffffffffffffffff166002600084815260200190815260200160002060009054906101000a900473ffffffffffffffffffffffffffffffffffffffff1673ffffffffffffffffffffffffffffffffffffffff1614159050919050565b600033905090565b816004600083815260200190815260200160002060006101000a81548173ffffffffffffffffffffffffffffffffffffffff021916908373ffffffffffffffffffffffffffffffffffffffff160217905550808273ffffffffffffffffffffffffffffffffffffffff16610fb38361096a565b73ffffffffffffffffffffffffffffffffffffffff167f8c5be1e5ebec7d5bd14f71427d1e84f3dd0314c0f7b2291e5b200ac8c7c3b92560405160405180910390a45050565b60006008600084815260200190815260200160002060009054906101000a900473ffffffffffffffffffffffffffffffffffffffff169050600061103d6007611707565b90506110496007611715565b600060648460008151811061106157611060612d78565b5b60200260200101516110739190612cba565b9050600061108082610b7c565b905061108c848461172b565b61113383600983600381106110a4576110a3612d78565b5b0180546110b090612c0e565b80601f01602080910402602001604051908101604052809291908181526020018280546110dc90612c0e565b80156111295780601f106110fe57610100808354040283529160200191611129565b820191906000526020600020905b81548152906001019060200180831161110c57829003601f168201915b5050505050611749565b505050505050565b600061114682610ecc565b611185576040517f08c379a000000000000000000000000000000000000000000000000000000000815260040161117c906127f4565b60405180910390fd5b60006111908361096a565b90508073ffffffffffffffffffffffffffffffffffffffff168473ffffffffffffffffffffffffffffffffffffffff1614806111d257506111d18185610dce565b5b8061121057508373ffffffffffffffffffffffffffffffffffffffff166111f8846104f4565b73ffffffffffffffffffffffffffffffffffffffff16145b91505092915050565b8273ffffffffffffffffffffffffffffffffffffffff166112398261096a565b73ffffffffffffffffffffffffffffffffffffffff161461128f576040517f08c379a000000000000000000000000000000000000000000000000000000000815260040161128690612774565b60405180910390fd5b600073ffffffffffffffffffffffffffffffffffffffff168273ffffffffffffffffffffffffffffffffffffffff1614156112ff576040517f08c379a00000000000000000000000000000000000000000000000000000000081526004016112f6906127b4565b60405180910390fd5b61130a8383836117bd565b611315600082610f40565b6001600360008573ffffffffffffffffffffffffffffffffffffffff1673ffffffffffffffffffffffffffffffffffffffff16815260200190815260200160002060008282546113659190612ae8565b925050819055506001600360008473ffffffffffffffffffffffffffffffffffffffff1673ffffffffffffffffffffffffffffffffffffffff16815260200190815260200160002060008282546113bc9190612a61565b92505081905550816002600083815260200190815260200160002060006101000a81548173ffffffffffffffffffffffffffffffffffffffff021916908373ffffffffffffffffffffffffffffffffffffffff160217905550808273ffffffffffffffffffffffffffffffffffffffff168473ffffffffffffffffffffffffffffffffffffffff167fddf252ad1be2c89b69c2b068fc378daa952ba7f163c4a11628f55a4df523b3ef60405160405180910390a461147b8383836117c2565b505050565b8173ffffffffffffffffffffffffffffffffffffffff168373ffffffffffffffffffffffffffffffffffffffff1614156114ef576040517f08c379a00000000000000000000000000000000000000000000000000000000081526004016114e6906127d4565b60405180910390fd5b80600560008573ffffffffffffffffffffffffffffffffffffffff1673ffffffffffffffffffffffffffffffffffffffff16815260200190815260200160002060008473ffffffffffffffffffffffffffffffffffffffff1673ffffffffffffffffffffffffffffffffffffffff16815260200190815260200160002060006101000a81548160ff0219169083151502179055508173ffffffffffffffffffffffffffffffffffffffff168373ffffffffffffffffffffffffffffffffffffffff167f17307eab39ab6107e8899845ad3d59bd9653f200f220920489ca2b5937696c31836040516115e091906126c4565b60405180910390a3505050565b6115f8848484611219565b611604848484846117c7565b611643576040517f08c379a000000000000000000000000000000000000000000000000000000000815260040161163a90612754565b60405180910390fd5b50505050565b606060405180602001604052806000815250905090565b606061166b82610ecc565b6116aa576040517f08c379a00000000000000000000000000000000000000000000000000000000081526004016116a1906128f4565b60405180910390fd5b60006116b4611649565b905060008151116116d457604051806020016040528060008152506116ff565b806116de8461195e565b6040516020016116ef9291906125f5565b6040516020818303038152906040525b915050919050565b600081600001549050919050565b6001816000016000828254019250508190555050565b611745828260405180602001604052806000815250611abf565b5050565b61175282610ecc565b611791576040517f08c379a000000000000000000000000000000000000000000000000000000000815260040161178890612874565b60405180910390fd5b806006600084815260200190815260200160002090805190602001906117b8929190611d39565b505050565b505050565b505050565b60006117e88473ffffffffffffffffffffffffffffffffffffffff16611b1a565b15611951578373ffffffffffffffffffffffffffffffffffffffff1663150b7a02611811610f38565b8786866040518563ffffffff1660e01b8152600401611833949392919061265d565b602060405180830381600087803b15801561184d57600080fd5b505af192505050801561187e57506040513d601f19601f8201168201806040525081019061187b9190612158565b60015b611901573d80600081146118ae576040519150601f19603f3d011682016040523d82523d6000602084013e6118b3565b606091505b506000815114156118f9576040517f08c379a00000000000000000000000000000000000000000000000000000000081526004016118f090612754565b60405180910390fd5b805181602001fd5b63150b7a0260e01b7bffffffffffffffffffffffffffffffffffffffffffffffffffffffff1916817bffffffffffffffffffffffffffffffffffffffffffffffffffffffff191614915050611956565b600190505b949350505050565b606060008214156119a6576040518060400160405280600181526020017f30000000000000000000000000000000000000000000000000000000000000008152509050611aba565b600082905060005b600082146119d85780806119c190612c71565b915050600a826119d19190612ab7565b91506119ae565b60008167ffffffffffffffff8111156119f4576119f3612da7565b5b6040519080825280601f01601f191660200182016040528015611a265781602001600182028036833780820191505090505b5090505b60008514611ab357600182611a3f9190612ae8565b9150600a85611a4e9190612cba565b6030611a5a9190612a61565b60f81b818381518110611a7057611a6f612d78565b5b60200101907effffffffffffffffffffffffffffffffffffffffffffffffffffffffffffff1916908160001a905350600a85611aac9190612ab7565b9450611a2a565b8093505050505b919050565b611ac98383611b3d565b611ad660008484846117c7565b611b15576040517f08c379a0000000000000000000000000000000000000000000000000000000008152600401611b0c90612754565b60405180910390fd5b505050565b6000808273ffffffffffffffffffffffffffffffffffffffff163b119050919050565b600073ffffffffffffffffffffffffffffffffffffffff168273ffffffffffffffffffffffffffffffffffffffff161415611bad576040517f08c379a0000000000000000000000000000000000000000000000000000000008152600401611ba490612894565b60405180910390fd5b611bb681610ecc565b15611bf6576040517f08c379a0000000000000000000000000000000000000000000000000000000008152600401611bed90612794565b60405180910390fd5b611c02600083836117bd565b6001600360008473ffffffffffffffffffffffffffffffffffffffff1673ffffffffffffffffffffffffffffffffffffffff1681526020019081526020016000206000828254611c529190612a61565b92505081905550816002600083815260200190815260200160002060006101000a81548173ffffffffffffffffffffffffffffffffffffffff021916908373ffffffffffffffffffffffffffffffffffffffff160217905550808273ffffffffffffffffffffffffffffffffffffffff16600073ffffffffffffffffffffffffffffffffffffffff167fddf252ad1be2c89b69c2b068fc378daa952ba7f163c4a11628f55a4df523b3ef60405160405180910390a4611d13600083836117c2565b5050565b6040518060600160405280600390602082028036833780820191505090505090565b828054611d4590612c0e565b90600052602060002090601f016020900481019282611d675760008555611dae565b82601f10611d8057805160ff1916838001178555611dae565b82800160010185558215611dae579182015b82811115611dad578251825591602001919060010190611d92565b5b509050611dbb9190611dbf565b5090565b5b80821115611dd8576000816000905550600101611dc0565b5090565b6000611def611dea84612994565b61296f565b90508083825260208201905082856020860282011115611e1257611e11612ddb565b5b60005b85811015611e425781611e288882611f3e565b845260208401935060208301925050600181019050611e15565b5050509392505050565b6000611e5f611e5a846129c0565b61296f565b905082815260208101848484011115611e7b57611e7a612de0565b5b611e86848285612bcc565b509392505050565b600081359050611e9d8161327e565b92915050565b600082601f830112611eb857611eb7612dd6565b5b8135611ec8848260208601611ddc565b91505092915050565b600081359050611ee081613295565b92915050565b600081359050611ef5816132ac565b92915050565b600081519050611f0a816132ac565b92915050565b600082601f830112611f2557611f24612dd6565b5b8135611f35848260208601611e4c565b91505092915050565b600081359050611f4d816132c3565b92915050565b600081519050611f62816132c3565b92915050565b600060208284031215611f7e57611f7d612dea565b5b6000611f8c84828501611e8e565b91505092915050565b60008060408385031215611fac57611fab612dea565b5b6000611fba85828601611e8e565b9250506020611fcb85828601611e8e565b9150509250929050565b600080600060608486031215611fee57611fed612dea565b5b6000611ffc86828701611e8e565b935050602061200d86828701611e8e565b925050604061201e86828701611f3e565b9150509250925092565b6000806000806080858703121561204257612041612dea565b5b600061205087828801611e8e565b945050602061206187828801611e8e565b935050604061207287828801611f3e565b925050606085013567ffffffffffffffff81111561209357612092612de5565b5b61209f87828801611f10565b91505092959194509250565b600080604083850312156120c2576120c1612dea565b5b60006120d085828601611e8e565b92505060206120e185828601611ed1565b9150509250929050565b6000806040838503121561210257612101612dea565b5b600061211085828601611e8e565b925050602061212185828601611f3e565b9150509250929050565b60006020828403121561214157612140612dea565b5b600061214f84828501611ee6565b91505092915050565b60006020828403121561216e5761216d612dea565b5b600061217c84828501611efb565b91505092915050565b60006020828403121561219b5761219a612dea565b5b60006121a984828501611f3e565b91505092915050565b6000602082840312156121c8576121c7612dea565b5b60006121d684828501611f53565b91505092915050565b600080604083850312156121f6576121f5612dea565b5b600061220485828601611f3e565b925050602083013567ffffffffffffffff81111561222557612224612de5565b5b61223185828601611ea3565b9150509250929050565b600061224783836125b9565b60208301905092915050565b61225c81612b1c565b82525050565b61226b816129fb565b6122758184612a29565b9250612280826129f1565b8060005b838110156122b1578151612298878261223b565b96506122a383612a1c565b925050600181019050612284565b505050505050565b6122c281612b2e565b82525050565b6122d181612b3a565b82525050565b60006122e282612a06565b6122ec8185612a34565b93506122fc818560208601612bdb565b61230581612def565b840191505092915050565b600061231b82612a11565b6123258185612a45565b9350612335818560208601612bdb565b61233e81612def565b840191505092915050565b600061235482612a11565b61235e8185612a56565b935061236e818560208601612bdb565b80840191505092915050565b6000612387603283612a45565b915061239282612e00565b604082019050919050565b60006123aa602583612a45565b91506123b582612e4f565b604082019050919050565b60006123cd601c83612a45565b91506123d882612e9e565b602082019050919050565b60006123f0602483612a45565b91506123fb82612ec7565b604082019050919050565b6000612413601983612a45565b915061241e82612f16565b602082019050919050565b6000612436602c83612a45565b915061244182612f3f565b604082019050919050565b6000612459603883612a45565b915061246482612f8e565b604082019050919050565b600061247c602a83612a45565b915061248782612fdd565b604082019050919050565b600061249f602983612a45565b91506124aa8261302c565b604082019050919050565b60006124c2602e83612a45565b91506124cd8261307b565b604082019050919050565b60006124e5602083612a45565b91506124f0826130ca565b602082019050919050565b6000612508603183612a45565b9150612513826130f3565b604082019050919050565b600061252b602c83612a45565b915061253682613142565b604082019050919050565b600061254e602f83612a45565b915061255982613191565b604082019050919050565b6000612571602183612a45565b915061257c826131e0565b604082019050919050565b6000612594603183612a45565b915061259f8261322f565b604082019050919050565b6125b381612b70565b82525050565b6125c281612b9e565b82525050565b6125d181612b9e565b82525050565b6125e081612ba8565b82525050565b6125ef81612bb8565b82525050565b60006126018285612349565b915061260d8284612349565b91508190509392505050565b600060208201905061262e6000830184612253565b92915050565b60006040820190506126496000830185612253565b6126566020830184612253565b9392505050565b60006080820190506126726000830187612253565b61267f6020830186612253565b61268c60408301856125c8565b818103606083015261269e81846122d7565b905095945050505050565b60006060820190506126be6000830184612262565b92915050565b60006020820190506126d960008301846122b9565b92915050565b600060a0820190506126f460008301886122c8565b61270160208301876125e6565b61270e60408301866125aa565b61271b60608301856125d7565b61272860808301846125d7565b9695505050505050565b6000602082019050818103600083015261274c8184612310565b905092915050565b6000602082019050818103600083015261276d8161237a565b9050919050565b6000602082019050818103600083015261278d8161239d565b9050919050565b600060208201905081810360008301526127ad816123c0565b9050919050565b600060208201905081810360008301526127cd816123e3565b9050919050565b600060208201905081810360008301526127ed81612406565b9050919050565b6000602082019050818103600083015261280d81612429565b9050919050565b6000602082019050818103600083015261282d8161244c565b9050919050565b6000602082019050818103600083015261284d8161246f565b9050919050565b6000602082019050818103600083015261286d81612492565b9050919050565b6000602082019050818103600083015261288d816124b5565b9050919050565b600060208201905081810360008301526128ad816124d8565b9050919050565b600060208201905081810360008301526128cd816124fb565b9050919050565b600060208201905081810360008301526128ed8161251e565b9050919050565b6000602082019050818103600083015261290d81612541565b9050919050565b6000602082019050818103600083015261292d81612564565b9050919050565b6000602082019050818103600083015261294d81612587565b9050919050565b600060208201905061296960008301846125c8565b92915050565b600061297961298a565b90506129858282612c40565b919050565b6000604051905090565b600067ffffffffffffffff8211156129af576129ae612da7565b5b602082029050602081019050919050565b600067ffffffffffffffff8211156129db576129da612da7565b5b6129e482612def565b9050602081019050919050565b6000819050919050565b600060039050919050565b600081519050919050565b600081519050919050565b6000602082019050919050565b600081905092915050565b600082825260208201905092915050565b600082825260208201905092915050565b600081905092915050565b6000612a6c82612b9e565b9150612a7783612b9e565b9250827fffffffffffffffffffffffffffffffffffffffffffffffffffffffffffffffff03821115612aac57612aab612ceb565b5b828201905092915050565b6000612ac282612b9e565b9150612acd83612b9e565b925082612add57612adc612d1a565b5b828204905092915050565b6000612af382612b9e565b9150612afe83612b9e565b925082821015612b1157612b10612ceb565b5b828203905092915050565b6000612b2782612b7e565b9050919050565b60008115159050919050565b6000819050919050565b60007fffffffff0000000000000000000000000000000000000000000000000000000082169050919050565b600061ffff82169050919050565b600073ffffffffffffffffffffffffffffffffffffffff82169050919050565b6000819050919050565b600063ffffffff82169050919050565b600067ffffffffffffffff82169050919050565b82818337600083830152505050565b60005b83811015612bf9578082015181840152602081019050612bde565b83811115612c08576000848401525b50505050565b60006002820490506001821680612c2657607f821691505b60208210811415612c3a57612c39612d49565b5b50919050565b612c4982612def565b810181811067ffffffffffffffff82111715612c6857612c67612da7565b5b80604052505050565b6000612c7c82612b9e565b91507fffffffffffffffffffffffffffffffffffffffffffffffffffffffffffffffff821415612caf57612cae612ceb565b5b600182019050919050565b6000612cc582612b9e565b9150612cd083612b9e565b925082612ce057612cdf612d1a565b5b828206905092915050565b7f4e487b7100000000000000000000000000000000000000000000000000000000600052601160045260246000fd5b7f4e487b7100000000000000000000000000000000000000000000000000000000600052601260045260246000fd5b7f4e487b7100000000000000000000000000000000000000000000000000000000600052602260045260246000fd5b7f4e487b7100000000000000000000000000000000000000000000000000000000600052603260045260246000fd5b7f4e487b7100000000000000000000000000000000000000000000000000000000600052604160045260246000fd5b600080fd5b600080fd5b600080fd5b600080fd5b600080fd5b6000601f19601f8301169050919050565b7f4552433732313a207472616e7366657220746f206e6f6e20455243373231526560008201527f63656976657220696d706c656d656e7465720000000000000000000000000000602082015250565b7f4552433732313a207472616e736665722066726f6d20696e636f72726563742060008201527f6f776e6572000000000000000000000000000000000000000000000000000000602082015250565b7f4552433732313a20746f6b656e20616c7265616479206d696e74656400000000600082015250565b7f4552433732313a207472616e7366657220746f20746865207a65726f2061646460008201527f7265737300000000000000000000000000000000000000000000000000000000602082015250565b7f4552433732313a20617070726f766520746f2063616c6c657200000000000000600082015250565b7f4552433732313a206f70657261746f7220717565727920666f72206e6f6e657860008201527f697374656e7420746f6b656e0000000000000000000000000000000000000000602082015250565b7f4552433732313a20617070726f76652063616c6c6572206973206e6f74206f7760008201527f6e6572206e6f7220617070726f76656420666f7220616c6c0000000000000000602082015250565b7f4552433732313a2062616c616e636520717565727920666f7220746865207a6560008201527f726f206164647265737300000000000000000000000000000000000000000000602082015250565b7f4552433732313a206f776e657220717565727920666f72206e6f6e657869737460008201527f656e7420746f6b656e0000000000000000000000000000000000000000000000602082015250565b7f45524337323155524953746f726167653a2055524920736574206f66206e6f6e60008201527f6578697374656e7420746f6b656e000000000000000000000000000000000000602082015250565b7f4552433732313a206d696e7420746f20746865207a65726f2061646472657373600082015250565b7f45524337323155524953746f726167653a2055524920717565727920666f722060008201527f6e6f6e6578697374656e7420746f6b656e000000000000000000000000000000602082015250565b7f4552433732313a20617070726f76656420717565727920666f72206e6f6e657860008201527f697374656e7420746f6b656e0000000000000000000000000000000000000000602082015250565b7f4552433732314d657461646174613a2055524920717565727920666f72206e6f60008201527f6e6578697374656e7420746f6b656e0000000000000000000000000000000000602082015250565b7f4552433732313a20617070726f76616c20746f2063757272656e74206f776e6560008201527f7200000000000000000000000000000000000000000000000000000000000000602082015250565b7f4552433732313a207472616e736665722063616c6c6572206973206e6f74206f60008201527f776e6572206e6f7220617070726f766564000000000000000000000000000000602082015250565b61328781612b1c565b811461329257600080fd5b50565b61329e81612b2e565b81146132a957600080fd5b50565b6132b581612b44565b81146132c057600080fd5b50565b6132cc81612b9e565b81146132d757600080fd5b5056fea264697066735822122089980a5d1f48c8d1643379ea65684bef660c773d104562ca793d62d18979dc4c64736f6c63430008070033",
  "linkReferences": {},
  "deployedLinkReferences": {}
}